:020000041000EA
:1000000000B5324B212058609868022188439860DF
:10001000D860186158612E4B002199600221596106
:100020000121F02299502B49196001219960352056
:1000300000F044F80222904214D00621196600F024
:1000400034F8196E01211966002018661A6600F04E
:100050002CF8196E196E196E052000F02FF8012189
:100060000842F9D1002199601B49196000215960AB
:100070001A491B48016001219960EB211966A021F2
:10008000196600F012F800219960164914480160C1
:100090000121996001BC002800D000471248134993
:1000A000086003C880F30888084703B5996A0420EC
:1000B0000142FBD001200142F8D103BD02B5186610
:1000C0001866FFF7F2FF186E186E02BD00000240BE
:1000D000000000180000070000035F00212200005C
:1000E000F4000018222000A00001001008ED00E03C
:1000F00000000000000000000000000074B24E7A12
:1001000000200420F7010010C3010010C5010010F9
:10011000C1010010C1010010C1010010C101001097
:10012000C1010010C1010010C1010010C701001081
:10013000C1010010C1010010C9010010CB01001065
:10014000CD010010CD010010CD010010CD01001037
:10015000CD010010CD010010CD010010CD01001027
:10016000CD010010CD010010CD010010CD01001017
:10017000CD010010CD010010CD010010CD01001007
:10018000CD010010CD010010CD010010CD010010F7
:10019000CD010010CD010010CD010010CD010010E7
:1001A000CD010010CD010010CD010010CD010010D7
:1001B000CD010010CD010010CD010010CD010010C7
:1001C00000BE00BE00BE00BE00BE00BE00F04BF888
:1001D000103800BEF2EB8871BC830010E083001081
:1001E0003402001090A31AE700202149086006C8D5
:1001F00081F3088810471F48006800282FD10DA4FC
:100200000ECC002902D000F012F8F9E71A491B4A77
:10021000002000E001C19142FCD1194988471949E9
:1002200088471949884700BEFDE701C901C29A42C3
:10023000FBD37047E0830010C0000020B003002013
:10024000D08600100000042000000420D08600109A
:1002500000100420001004200000000070470B482C
:1002600003F0BCF80047EFF30580C0B27047000010
:1002700008ED00E0000000D0B00300206C12002068
:100280002519001099050010F519001057560000A7
:1002900006005250ABB36053507D00100600525020
:1002A000861C0302607D0010060052505422A29D5D
:1002B000707D001005005250DE65F468D086001095
:1002C000F8B5C0460448054B10B5834203D0044B33
:1002D000002B00D0984710BDB0030020B0030020D1
:1002E0000000000006480749091A8910CB0F591869
:1002F00010B5491003D0044B002B00D0984710BD17
:10030000B0030020B00300200000000010B5074C2F
:100310002378002B09D1FFF7D5FF054B002B02D026
:10032000044800E000BF0123237010BDB804002082
:1003300000000000E06F0010054B10B5002B03D04B
:100340000449054800E000BFFFF7CCFF10BDC046E0
:1003500000000000BC040020E06F001000B585B074
:100360000F226A44107000230093013327210248B2
:1003700006F0C6FD05B000BD8C030020D0B504001A
:100380000B4E00273000390000F0F4FE042020431B
:10039000FFF7E4FF3000390000F0ECFE04232000FA
:1003A0009843FFF7DBFF3000390000F0E3FED0BDDB
:1003B0009411000070B50F2305009D436DB249B242
:1003C0000D4308231D43EDB204010C4364B21C43EA
:1003D000E4B22800FFF7C2FF2800FFF7CFFF20009C
:1003E000FFF7BCFF2000FFF7C9FF70BD10B500216B
:1003F0000120FFF7DFFF10BD10B5002806D0C03187
:100400000800C0B20021FFF7D5FF10BD8031080001
:10041000F7E710B5040003E001340121FFF7CAFF3C
:1004200020780028F8D110BD10B500213320FFF747
:10043000C1FF00213220FFF7BDFF00210620FFF79A
:10044000B9FF00212820FFF7B5FF00210C20FFF79E
:10045000B1FFFFF7CBFF10BDF0B5C64600B586B0C3
:1004600080461422002101A803F0BAFFD0242406FC
:1004700080256D026562A561142000F093FE656120
:100480002820002100F076FEA56200260027012525
:1004900019E0D0231B065D682D0C01231D40FF2CA5
:1004A00024D0032E0ED9F3070CD4FA0801A990002A
:1004B00043585B0043501E2C03D901210B4301A973
:1004C000435001370136542E10D80024D0231B0688
:1004D0005A68120C01231340AB42DAD101340120D7
:1004E000002100F047FEFF2CF0D1D2E7019D0298D9
:1004F0002B18039C1B19049E9B19FF221340272FC6
:1005000002D9059A9A4208D0059A39001E4804F08B
:100510009BF806B004BC9046F0BDAB005B195A00D6
:10052000801803F079FE194903F03BFE434618603A
:10053000174903F06BFE002804D0280003F06CFE7E
:10054000434618607F22224093009B1858003018C1
:1005500003F062FE0D4903F024FE434658600D4946
:1005600003F054FE002804D0200003F055FE43465B
:1005700058602306CDD543465B6880221206944618
:10058000634442465360C4E73870001000002041C5
:100590000000C8420000FA42F0B58FB004F060F8E5
:1005A000102000F0A1F83049304806F07FFC03210C
:1005B000142000F067F80321152000F063F80022F2
:1005C0000121142000F076F800220121152000F00E
:1005D00071F8FFF729FF04A8FFF73EFF059C2449A7
:1005E000201C03F0E3FD234903F0DBFD8421C90552
:1005F00003F0D2FD051C049803F030FE06000F0046
:10060000281C03F02BFE02900391201C03F026FE11
:100610000090019132003B00174804F015F80021CA
:100620000020FFF7E9FE049803F018FE02000B001B
:10063000124906A802F0A6FE06A8FFF7EAFE00216E
:100640000120FFF7D9FE059803F008FE02000B0019
:100650000B4906A802F096FE06A8FFF7DAFEFA207C
:10066000C00000F09FFDB6E7A08601008C030020CB
:10067000000010410000A040E86F0010187000104A
:100680002870001010B58300084A944663441C6823
:1006900040226240C02414408022520113431C6057
:1006A000C000034B9C466044416010BD04C0014043
:1006B0000040014080000B4B9C46604400290DD057
:1006C0000823002A0CD100221343026853400C2255
:1006D0001340802252011043036070470023F0E76B
:1006E0000422F1E704C0014010B501238340D02269
:1006F0001206936293610521FFF7C4FF10BD00004D
:10070000EFF3108072B6034B1B68002BFBD0BFF3D6
:100710005F8F70472C0100D0BFF35F8F024B002228
:100720001A6080F3108870472C0100D0F8B50400DF
:100730000F001500FFF7E4FFF90861180E78072491
:100740003C403300E340DB0707D40122A240D3B290
:1007500033430B70FFF7E0FFF8BD3900280001F0CC
:100760006BF9F0B583B00700019114001E00FFF78C
:10077000C7FFB44210D8E308FB18197807222240BB
:100780000D00D540ED0701D50134F2E70126964072
:10079000F2B21143197001E001246442FFF7BCFF7B
:1007A000002C02DB200003B0F0BD019B002BF9D030
:1007B000089801F041F90000002307E0054A9A1863
:1007C0009200BFF35F8F0021116001331F2BF5D919
:1007D0007047C04640000034054A1078431CDBB225
:1007E0001370172B02D9130010221A707047C046DD
:1007F000B802002000B583B00100044B00931F2312
:1008000018220348FFF7ADFF03B000BD4C70001085
:1008100054080020034B1B6802201840431E9841D7
:10082000C0B2704700C0064040BF002000217047A2
:1008300070B505000C00080000F044FD200000F039
:100840001BFE0849200000F069FDFFF7C5FF064BBD
:100850009C466044800068602C75A400034BE55002
:1008600070BDC046490B001040000034780F0020D6
:1008700070B5002921D003681B7B99421DD8164B07
:100880009C466144090183689C4661440C68496840
:10089000002A18D003681B7B9A4214D883680E483C
:1008A0008446624412019A181568536801208B42ED
:1008B00001D80ED00020C0B270BD084B084A3921C3
:1008C000084801F09BF8054B054A3921054801F01D
:1008D00095F8A542EFD8EDE7FFFFFF0F507300102A
:1008E000A8700010CC72001010B500291FD0037B37
:1008F00099421CD84B005B18033B0468A446634430
:1009000000291AD0002A1ED0914222D0002A26D0D7
:10091000047BA24223D804685000801803382018B2
:1009200081701978002920D041701A7010BD104BC9
:10093000104A6921104801F061F8104B104A7031DB
:100940000D4801F05BF80F4B0D4A71210A4801F088
:1009500055F80D4B0A4A7221074801F04FF8044B35
:10096000044A6921044801F049F81A70DEE7C046DC
:10097000247200106870001040720010887200101D
:100980007470001094720010A072001070B5060010
:100990000D00140000290BD0002A12D08068736863
:1009A0009847002806D12A0021003000FFF79CFF5D
:1009B000200070BD220029003000FFF795FF2C00B9
:1009C000F6E70C00F4E7000070B5CE4600B583B042
:1009D0000500009201930AAB1C780BAB1B7899467B
:1009E000002C28D003685A7B944209D10123002BA4
:1009F0001BD1002C3DD1200003B004BC914670BD3A
:100A0000002C0CD01A7B944209D81A6863001B1979
:100A1000033BD3189B78002BE9D00123E7E73F4B3A
:100A20003F4A69213F4800F0E9FF3F4B3F4A6221BE
:100A30003F4800F0E3FF03689C7B002CD9D012D024
:100A40001A7B94420FD862001219033A19688C4637
:100A5000624451789973002900D1D97300239370AF
:100A600053701370C5E72D4B2D4A69212D4800F0B6
:100A7000C5FF002C3BD02B681B7B9C4237D82D4BED
:100A8000E3181B01AA68944663440099019A19600F
:100A90005A60089A9A60099ADA602E68002C2CD065
:100AA00031D0337B9C422ED863001B19033B326844
:100AB0009446634400229A705A701A70717B220027
:100AC0003000FFF763FF7073844200D093E7287D06
:100AD000009A019B00F06AFC061E02D04B46002BD8
:100AE00017D00C9B002B00D185E71E7083E7124BBB
:100AF000124A39210E4800F081FF114B114AA621FC
:100B0000084800F07BFF054B054A6921054800F0C5
:100B100075FF2868210000F089FEE2E724720010CA
:100B200068700010407200102C710010E07000100E
:100B3000CC720010FFFFFF0F50730010A870001060
:100B4000C872001088700010F0B5DE4657464E4659
:100B50004546E0B58DB00B908200B14BD558A1E071
:100B6000B04BB14A3921B14800F048FF002F02D103
:100B7000002E00D0BEE00021604600F04DFEA042F5
:100B80001CD14B461A685B68089209934B469B68D8
:100B900098464B46DB6899464346002B14D0002C00
:100BA00018D02B681B7B9C4214D8631EEA68D35C68
:100BB0009B461B02184328610020A6E09C4B9D4ADF
:100BC00089219A4800F01AFF9B4B9A4A8D21974839
:100BD00000F014FF934B994A3E21944800F00EFF19
:100BE0000023994600220023089209930023984687
:100BF00000208AE02B69002B00D1A5E0BB421CD16C
:100C0000089A099B06980799121A8B410898099926
:100C1000994202D804D1904202D901225242D317FC
:100C2000002104910131039102944946019141460A
:100C300000912800FFF7C8FE2CE0814B7D4A9C21E3
:100C40007A4800F0DBFE069A079B002B02D1002AAF
:100C500000D07DE02B68002C00D1B7E05A7B944295
:100C600000D09CE00122002A00D0AFE0DA7B002A0D
:100C700000D0B1E0DC73002C00D1C0E02B681B7BFE
:100C80009C4200D9BBE0013CEB689C46644423785D
:100C90000133237000232B616A68BFF35F8F1360F9
:100CA00086F3108800F01AFB6A68EFF3108A72B6B8
:100CB00057461368002BFCD0BA46BFF35F8F2B68F2
:100CC0009C465C7B002C8BD000D149E71B7B9C426F
:100CD00000D945E75B4BE6183601AB6898464644B9
:100CE000B1463268736816001F00361A8F41002F14
:100CF00000DC3BE70B9800F059FB002399460022EB
:100D0000002308920993002398466B68BFF35F8F16
:100D100000221A608AF310884346002B75D05B4688
:100D20001F02274349463800C047069007916A686A
:100D3000EFF3108672B61368002BFCD0BFF35F8F01
:100D4000079B002B00DA55E7079B002B00DC7AE7B6
:100D50002B69002B00D17DE7BB421AD100F0BEFA0F
:100D6000069A079B12184B41994202D804D190422F
:100D700002D901225242D31700210491013103917B
:100D8000029449460191414600912800FFF71CFE5C
:100D900080E72B4B274A9F21244800F02FFE002C90
:100DA0000ED01A7B94420BD862001219033A1968CC
:100DB0008C4662449278002A00D154E7012252E71F
:100DC000214B224A6921224800F018FE214B224A79
:100DD000F7211F4800F012FE002A0AD0197B8A4230
:100DE00007D851008A18033A19688C466244547037
:100DF00040E7154B154A6921154800F0FFFD094BE6
:100E00000E4A3E21094800F0F9FD002800D049E7CC
:100E10000DB03CBC90469946A246AB46F0BDC046DC
:100E2000780F002050730010A8700010CC720010D2
:100E300054710010F87000106C710010B470001044
:100E400078710010FFFFFF0F24720010687000100F
:100E500040720010B47100109870001010B5084B6B
:100E60005B68002B00D010BD054C2300054A102103
:100E7000206800F0EFFB03212000FFF7D9FCF2E728
:100E8000BC0200207108001010B5064B5B68002BF7
:100E900001D0044810BD044B044A5921044800F015
:100EA000ADFDC046BC02002000720010C8700010EA
:100EB000CC720010F0B5DE4657464E464546E0B5CA
:100EC00089B0804616001F00129B994614AB1B7810
:100ED0009A461F236B4400221A7001E016001F007F
:100EE00043465B68EFF3108572B61C68624254415A
:100EF000E4B2002CF9D1BFF35F8F1F236B4404933E
:100F0000002303930293139B01934B4600933200FB
:100F10003B004046FFF758FD031E2FD100229346A9
:100F200041464968BFF35F8F00220A6085F310884D
:100F3000002B45D01F236B441B78002B02D15A464F
:100F400014020443002B3DD05346002B3AD0139992
:100F50002000C84704000D0003000B433AD00029CD
:100F60001FDA32003B00121BAB419F4202D8B5D1C1
:100F70009642B3D901267642F717B1E700280AD086
:100F800042461268127B904205D8421E4146C9680B
:100F90008A5C9346C4E7104B104A3E21104800F08B
:100FA0002DFD00F09BF924184D4126002F00A94289
:100FB00002D895D1A04293D901267642F7178FE740
:100FC00001246442200009B03CBC90469946A246E8
:100FD000AB46F0BD0024F5E750730010B47000106C
:100FE000CC72001070B504004268EFF3108572B641
:100FF0001368002BFCD0BFF35F8FCAB22668737BE7
:101000009A421BD10120002849D023698B422DD060
:10101000090AC9B2002A2FD023681B7B9A422BD819
:10102000531EE068C35C8B422CD000206368BFF382
:101030005F8F00221A6085F3108870BD002A0DD0E2
:10104000337B9A420AD853009B18033B306884468E
:1010500063449B78002B07D10020D4E7134B144A3C
:101060006921144800F0CAFC0120CCE7124B134A56
:10107000FB21134800F0C2FC124B134A3E211048DA
:1010800000F0BCFC1100300000F0D0FB0028CDD1F6
:1010900081210E4B094A4900094800F0AFFC236941
:1010A0008B42C3D100232361C0E7C04624720010E5
:1010B0006870001040720010D87100101471001098
:1010C000CC72001050730010B4700010FC7100104E
:1010D000F0B585B006000F00FFF7C5F8002826D14F
:1010E00006246442E517A4197D41BD4202D803D10C
:1010F000B44201D90024002500F0F0F822002B00B2
:10110000121A8B41002B15DDFFF7BEFE0023029360
:101110000193154B009322002B00FFF7CBFE002814
:1011200013DA3000390000F0E5F805B0F0BD0F48E3
:1011300000F082FC002BF4D1002AE5D1F1E7002376
:1011400000E00023002BECD120BF094B5B6A9D42DD
:10115000F7D80749896AA14203D29D42EFD0012303
:10116000F0E70123EEE7C0462908001000730010E5
:101170000040054070B504000D0000F0AFF802001B
:101180000B0020002900801859418B4205D901200D
:101190004042C117FFF79CFF70BD8B42FAD18242DB
:1011A000F5D8F7E710B5FA2292000023002102F0EB
:1011B000D1FFFFF7DFFF10BD70B584B005000C0054
:1011C000FFF762FE002302930193194B00932A005C
:1011D0002300FFF76FFE061E12DC164B5B6A9C4273
:1011E00009D8144A926AAA4208D29C4201D001202E
:1011F00002E0002000E0002004B070BD0120FBE709
:1012000020BFFFF741FE3100FFF7ECFE094B5B6AA0
:101210009C4209D8074A926AAA4207D29C4201D04E
:101220000120E9E70020E7E70020E5E70120E3E708
:10123000290800100040054070B5EFF305833F20FA
:1012400018401038EFF3108472B6194B1B68002B4E
:10125000FBD0BFF35F8F012319008140154A516312
:10126000154A12781500C5402B4214D0114B5D6A07
:101270008300124E9B599D4206D38300104D5B594B
:101280008A430D490A7007E00A4A031D9B009958DA
:101290009950002300E00023BFF35F8F044A002130
:1012A000116084F31088002B00D0984770BDC046B1
:1012B000280100D000400540A60F0020900F00201C
:1012C0004408002010B50100024A0348FFF72EFA37
:1012D00010BDC04690730010A30F0020044B596A44
:1012E00000E01900024B986A5B6A9942F9D1704795
:1012F00000400540084B5B6A01E0074B5B6A8B428C
:10130000FBD301E0044B5B6A8B4203D1024B9B6A27
:101310008342F7D37047C0460040054070B50400D3
:101320000D00EFF3108672B61B4B1B68002BFBD031
:10133000BFF35F8F002D1CD0200000F001FE174B83
:1013400098420BD01900200000F002FE012120007D
:1013500000F0E6FD0123A340114A1360A400114BE5
:10136000E550BFF35F8F0C4B00221A6086F31088A4
:1013700070BDA2000B4B0021D1500122A2400A49AE
:101380000B7893430B700549200000F00BFE002101
:10139000200000F0C5FDE4E7280100D0391200105C
:1013A0003860054044080020A60F0020F8B5CE465E
:1013B000474680B5050017001E00FFF78FFF8E42DD
:1013C0002CD9EFF3108972B6244B1B68002BFBD08D
:1013D000BFF35F8F0124AC40214B5C63E2B29046C7
:1013E00020490A78404602430A702A1D9200D750CD
:1013F000AD001D4AAE501B6A23421BD1184B1B6C1B
:10140000234211D00020BFF35F8F144B00221A60DB
:1014100089F310880CBC90469946F8BD8E4201D1E4
:101420008742CED80120F5E7104B114AB22111486E
:1014300000F0E4FAFFF752FF8E420CD801D1874248
:1014400009D8074B1C625C63064A137841468B43FC
:1014500013700120D7E70020D5E7C046280100D04F
:1014600000400540A60F0020900F0020B47300102C
:1014700074730010D873001010B5EFF3108472B6B7
:101480000A4B1B68002BFBD0BFF35F8F0123834007
:10149000074A136207490A789A430A70BFF35F8FBD
:1014A000024B00221A6084F3108810BD280100D07E
:1014B00000400540A60F0020024B9C466144890075
:1014C000016070474000003410B50400FFF784F954
:1014D00001002000FFF7F0FFFF232371BFF35F8FB0
:1014E00010BD10B5FFF7E8FFBFF35F8F10BD10B55B
:1014F00004000120FFF77EF901002000FFF7F1FF53
:1015000010BD000010B500291FD0037B99421CD8E4
:101510004B005B18033B0468A446634400291AD0BF
:10152000002A1ED0914222D0002A26D0047BA2425B
:1015300023D8046850008018033820188170197867
:10154000002920D041701A7010BD104B104A69213B
:10155000104800F053FA104B104A70310D4800F05B
:101560004DFA0F4B0D4A71210A4800F047FA0D4B16
:101570000A4A7221074800F041FA044B044A6921E3
:10158000044800F03BFA1A70DEE7C04624720010EF
:10159000AC7400104072001088720010B874001013
:1015A00094720010A072001070B506000D001400B7
:1015B00000290BD0002A12D0806873689847002851
:1015C00006D12A0021003000FFF79CFF200070BDEB
:1015D000220029003000FFF795FF2C00F6E70C00F1
:1015E000F4E7000010B50023437301338373037BDA
:1015F000C3730123027B9A4214D9002B0CD0027BC7
:10160000934209D85A00D218033A01688C466244C2
:101610000133DBB25370EDE70B4B0C4A69210C48E8
:1016200000F0ECF9002A09D0924207D80168530073
:101630009A18033A8A180023537010BD024B034ACC
:101640006921034800F0DAF924720010AC7400102C
:101650004072001010B5017342608360FFF7C2FF53
:1016600010BD000070B50400002901D1080070BD54
:10167000002934D0037B994231D84B005B18033BDF
:101680000268944663445A78002AEFD02DD0037B39
:101690009A422AD853009B18033B0068844663444F
:1016A0005D7800205870002925D0237B994222D8EC
:1016B0004B005B18033B206884466344002058704D
:1016C0002000FFF771FF060029002000FFF7CAFF86
:1016D000020031002000FFF767FF0100C6E7094B59
:1016E000094A6921094800F089F9064B064A69212F
:1016F000064800F083F9034B034A6921034800F0D0
:101700007DF9C04624720010AC74001040720010C5
:1017100070B505000C001600002928D02DD0037BE1
:1017200099422AD84B005B18033B026894466344F5
:101730005A78002A27D19A78002A2AD11978FFF7F7
:1017400091FF0300002E03D0EA7B002A27D1EC731F
:10175000002B37D1002C49D02B7B9C4246D82A68DD
:1017600063001C19033C14190023637070BD224BE5
:10177000224A3821224800F041F9224B224A6921AD
:10178000224800F03BF9224B1C4A3A211C4800F049
:1017900035F9204B194A3B21194800F02FF9002A4E
:1017A0000AD0297B8A4207D851008A18033A29684F
:1017B0008C4662445470CAE7124B134A692113489D
:1017C00000F01CF9002B0BD02A7B934208D8430071
:1017D0001B18033B2A689446634400229A70B9E7B9
:1017E000084B094A6921094800F008F9054B064AE7
:1017F0006921064800F002F920750010CC74001031
:101800002875001024720010AC7400104072001093
:101810005C7500108475001070B504000A00457BEB
:101820002900FFF775FF6073280070BD10B5040034
:10183000002966D0437B8B420ED0002911D0037B58
:1018400099420ED84B005B18033B0268D01883788E
:10185000002B0CD1002055E00121FFF7DDFF012016
:1018600050E0294B294A6921294800F0C7F8002B8C
:101870001FD0227B93421CD85A00D318033B226806
:10188000D21813788B421AD0002B1BD0227B9342A4
:1018900018D85A00D318033B2268D21853788B42C9
:1018A00016D0002BF0D11B4B1B4A67211B4800F0C0
:1018B000A5F8154B154A6921154800F09FF84378A3
:1018C000137007E0104B114A6921114800F096F897
:1018D0004378537000238370437001222000FFF788
:1018E00017FF0200617B814205D02000FFF75CFEFC
:1018F0006073012006E00A4B074A6D21074800F09B
:101900007DF8002010BDC04624720010AC74001099
:1019100040720010F8740010E07400102875001078
:101920000075001070B5234B234A1A60234B244ADC
:101930001A60244B9A68224B9343FAD1224C01E05F
:1019400008CC9847214B9C42FAD300F003F91B4B7B
:101950001F4A1A601B4B9B68DB43DB01FAD11D4B0E
:1019600040229A675A671A67DA661B4C03E0200028
:10197000FFF7AAFD0834194B9C42F8D3184CA16814
:10198000184DC022280002F031FDA560FEF76BFC67
:10199000002800D000BEFEF70FFF00F069FCFFF743
:1019A0005DFA114C01E008CC9847104B9C42FAD3E9
:1019B00070BDC04600E00040BFCDFFFF00F000401A
:1019C000FE7F3C0000C000409C030020AC030020D0
:1019D000FFFFFF0100F00140940300209C03002062
:1019E00000ED00E000000020AC030020B003002068
:1019F00000BEFDE710B5FFF7FBFF000010B582B099
:101A00000C001900002A0CD0084B002A0BD00192C0
:101A1000009323000200064802F016FE0120FFF7A3
:101A2000E7FF044BF1E7034AF1E7C046A875001051
:101A3000B8750010B47500100FB400B583B0084835
:101A400002F0D2FD049B002B07D005A901911800DC
:101A500002F0D8FD034802F0C7FD0120FFF7C8FFE0
:101A6000E8750010F8750010F8B5D646474680B501
:101A7000060088461700089A934242D3190E1802AE
:101A8000089A002301F048FD050073009B199C0093
:101A90002B4B9C4664446368834200D26060331FD2
:101AA000DBB29A46012B32D9C0239B01234380220B
:101AB00012011A60B300234A9958002905D05069D1
:101AC00001F0E4FC01300138FDD17F0123685F4063
:101AD000E0231F4080235B0123431F605246012AFD
:101AE00021D980239B012343802212011A60656063
:101AF000B600144B089AF25001200CBC90469A464E
:101B0000F8BD114B114A2E211148FFF777FF4346CC
:101B1000012BC9D1C0239B01234303221A60A36870
:101B2000DB07FCD5D1E721684246514003220A4039
:101B30001A60A268012341468B401342F9D0D0E7D6
:101B400000800040580800200C760010FC75001042
:101B50002076001030B583B00C2000F093F8FEF72B
:101B600059FE00280DD0002304E09900334A344880
:101B700088500133092BF8D9304B324A5A6203B0EE
:101B800030BD314B00229A6700F0E6F82F4B01225E
:101B90001A602D4B5B6C012BFBD12D4B03221A607D
:101BA000294B9B6B012BFBD1C0239B01294A13605E
:101BB000294A1360294B9A68C0239B019343F9D1AA
:101BC000022400940633264A0121264800F0D8F862
:101BD00000940523244A0121244800F0D1F8244B25
:101BE0000093002202210420FFF73EFF214D0095C3
:101BF0002B00002201210520FFF736FF104C009436
:101C00002300002200210720FFF72EFF009423006D
:101C1000002200210820FFF727FF0A4B0093230032
:101C2000002200210920FFF71FFF00952B00002252
:101C300000210620FFF718FFA1E7C0465808002042
:101C4000006CDC021BB70000008000403CB000408C
:101C500030B0004000E0004000F0004000C0004014
:101C6000002F68590080024000389C1C00C00240D0
:101C7000001BB700405973078000014BC0587047E4
:101C80005808002080239B001843014BD8627047FE
:101C900000800540024B1A68024B5A607047C046EC
:101CA000700F00200080054010B5144B8022D20533
:101CB0001A60134B134A1A60002919D0124BE02204
:101CC000D2041A60002800D1323043011B1A9B0055
:101CD000181803010D4A13600D4A934201D90B4BAA
:101CE0001A60FFF7D7FF084B8022D2051A6010BD9B
:101CF000024BE022D2041A60E4E7C04600B005407F
:101D000008200140FCFF010000A00540700F0020EA
:101D1000FFFFFF0010B50C4B8024E4051C60002879
:101D200007D10A4B0021D96100211000FFF7BCFF49
:101D300010BD01230343054C0548E06105485840A8
:101D400020626162A362EFE700B0054000800540B9
:101D5000D3C007B02D3FF84F064BAA2212011A60DC
:101D60002F22DA60044B054A1A60024B5B68002B95
:101D7000FBDA7047004002400060024000B0FA0009
:101D8000F0B583B0040016001D0001235B424360E0
:101D90000023836001910C2001F078FB070001997A
:101DA00021604201121A93019B1ADB001B18990152
:101DB000300001F06BFB0200103A98235B009A425E
:101DC0001FD86B1E062B22D8089B013B062B1ED862
:101DD000089B9D4221D33609BE4224D3A060231D17
:101DE000C02292011A43212313602368002BFCDADE
:101DF0002B0408990D031D43E5600823136003B00D
:101E0000F0BD0C4B0C4A1A210C48FFF7F7FD0C4BA8
:101E1000094A1D210948FFF7F1FD0A4B064A232113
:101E20000648FFF7EBFD084B034A27210348FFF75D
:101E3000E5FDC0466C7600106076001088760010D4
:101E4000C47600101077001028770010074B9B68AD
:101E5000103080001950BFF35F8FBFF35F8F044BCA
:101E60000021196082F310887047C04600ED00E041
:101E7000240100D010B5091A04394808090B05D10E
:101E80004005400D044B184380B210BD034B044A7B
:101E90008C210448FFF7B2FD00E0FFFF3879001005
:101EA000607700104879001010B5091A04394C0801
:101EB000090B08D14905490D064A11430180064B1B
:101EC0002343438010BD054B054A94210548FFF785
:101ED00095FDC04600F0FFFF00F8FFFF38790010C5
:101EE0006C7700104879001001238340034A106882
:101EF0001840431E9841C0B27047C04600E100E060
:101F0000002902D1034B18607047034B1860034B44
:101F10001860F9E780E100E080E200E000E100E025
:101F200010B5012383401800FFF7EAFF10BD000041
:101F300001238340014A13607047C04600E200E07D
:101F4000024B9B6810308000C058704700ED00E0E5
:101F500070B504000D00EFF3108672B60C4B1B68D1
:101F6000002BFBD0BFF35F8F2000FFF7E9FF094B89
:101F7000984201D0A84205D1320029002000FFF785
:101F800065FF70BD044B054A70210548FFF736FD1B
:101F9000240100D0CD01001000790010447700101A
:101FA00048790010F0B5CE4600B584B001900D0020
:101FB000EFF3108672B65A4B1B68002BFBD0BFF3B1
:101FC0005F8F584B9A68019C1034A300D758564B2A
:101FD0009F4200D19FE0AF4200D19EE00297534B59
:101FE000FB1A2F2B08D9320039000198FFF72EFF7A
:101FF00004B004BC9146F0BD0198FFF775FF039053
:1020000000210198FFF78CFFBFF35F8FFEF72BF9DC
:10201000002801D084421AD10123029C9C43230052
:1020200042495B1A5B414B495943090D4BB29C46EF
:102030000023A168A94212D00622A256002A0DDB75
:1020400053009B189A002300384CA418F1E7202174
:10205000374B384AFF313848FFF7D0FC2300A942FC
:1020600052D10622A2569146002A38DB52004A4439
:1020700091002E4B5B189A68A260DA79E271062211
:102080009A56A2719B795BB2002B12DABD20000236
:10209000A0804B465B004B449A00244B9B18274A78
:1020A000117899714B46137003990198FFF738FF27
:1020B00099E7201D1D4A8B181A1D9B88D90A1C29D7
:1020C00007D159054915023149005118FFF7D2FED1
:1020D000DEE71B4B1B4A9A211748FFF78FFC0028AD
:1020E0000DD1002B09D0FF229A71174A9A80134B09
:1020F0001A78A27162461A70D6E70B4FF7E7201DD7
:102100001249FFF7D1FECFE7AA21114B094A490036
:102110000948FFF773FC044F65E7034F63E7C046C8
:10212000240100D000ED00E0CD010010E402002009
:10213000D47800109477001048790010A40F002084
:10214000887800108477001000BDFFFF1E03002078
:10215000F8780010AAAA000010B5032304009C43DD
:10216000064A9446644422681840C000FC33834009
:102170009A4381401143216010BDC04600E400E055
:10218000F8B50400012606432D4BF31A2F2B28D84F
:10219000FEF769F800282BD0EFF3108572B6294BB3
:1021A0001B68002BFBD0BFF35F8F230024495B1A11
:1021B0005B412E495943090D49B2234B9B6880006E
:1021C0001B58B3421BD00023032B32D85A00D2181D
:1021D00090001B4A1218927952B28A421FD00133E2
:1021E000F2E77221194B1A4AFF311A48FFF706FC31
:1021F000BA21194B164A49001648FFF7FFFB124B4C
:102200009B68164A1A50164B1A78A2711970BFF3C0
:102210005F8F0C4B00221A6085F31088F8BD0848C8
:102220005A00D718BE008619FF27B7710D4BB3802F
:10223000E9E786210C4B064AFF310648FFF7DEFB33
:10224000E4020020240100D000ED00E0A07800109E
:10225000A877001048790010C8780010CD01001050
:10226000A40F002000BDFFFFF8740010AAAA000010
:1022700010B5002404E080212000FFF76DFF013439
:102280001F2CF8D910BD9A4200D28854704770476D
:1022900010B5002802D00B684968984710BD00238C
:1022A00007E09A00D3185A004B1C03600B789B1868
:1022B000303B01680A78303AD2B2092AF1D91800C5
:1022C0007047F0B5D6464F464646C0B582B00500C9
:1022D0000091904601930A9B99460B9C0C9E0D9B86
:1022E0009B0712D04E460C9B994618E0541C019B4C
:1022F00000992020A84701372200B742F6D3544660
:102300000C964E460C9B994609E02700A246F4E73E
:10231000013C571C305D019B0099A8473A00002CF6
:10232000F6D14E460D9B9B070AD5474605E0541C47
:10233000019B00992020A8472200D31BB342F6D36B
:10234000100002B01CBC90469946A246F0BDF0B504
:10235000CE46474680B587B0049205930E9E0F9CEB
:1023600010AD2B789946129F139B149DAA071CD47D
:10237000002B0CD0EA070AD54A46002A02D10C32BB
:102380002A4204D0013B02E0302232550134BC42E3
:1023900005D21F2CF8D902E0302232550134EA0769
:1023A00003D59C4201D21F2CF6D9EA0615D56A0541
:1023B00005D4002C03D0BC421CD09C421AD0119AE8
:1023C000102A23D0119A102A28D0119A022A2DD02F
:1023D0001F2C02D83027375501341F2C2FD84A46DE
:1023E000002A29D16A0737D42A0728D5202737554C
:1023F000013424E0671E002F06D0119A102A01D064
:102400003C00DCE7023CDAE73C00D8E7AA06D9D476
:102410001F2CD7D8782737550134D9E7AA06D4D549
:102420001F2CD2D8582737550134D1E71F2CCFD8CD
:10243000622737550134CBE72D27375501340395F3
:10244000029301940096059B049AFFF73AFF07B0A8
:102450000CBC90469946F0BD2B2737550134EEE76A
:10246000F0B5C64600B594B0089009910A920B9356
:102470001AAB10CB1B7898461F9D002C01D110235E
:102480009D438027FF002F4016D0002C20D000272E
:1024900012E0AA061AD54121C918C9B20A39C9B22F
:1024A0007E1C0CABD9551C99200000F0EFFF041ED8
:1024B0000FD01F2E0DD837001C99200000F0E6FF2A
:1024C000CBB2092BE5D83033D9B2E9E76121E3E794
:1024D000002606951E9B05931D9B04931C9B03934E
:1024E0004346029301960CAB00930B9B0A9A099901
:1024F0000898FFF72CFF14B004BC9046F0BDF0B56F
:10250000D6464F4680B599B00C900D910E920F9320
:10251000209C219D22AB1B789A46249B0A93259BE5
:102520000B93289B994623002B4303D110334A4633
:102530009A4391468026F6004B461E4007D0230062
:102540002B4331D0002637004E4609941BE037005C
:102550004E46099417E0B20621D54122D218D2B2D4
:102560000A3AD2B27C1C10ABDA550A9A0B9B099836
:10257000290000F0D1FF09900D000B00034315D096
:102580001F2C0ED827000A9A0B9B0998290000F0EF
:10259000C3FFD3B2092BDED83033DAB2E2E76122CF
:1025A000DCE72700B14603E0002701E02700B14641
:1025B0004B460693279B0593269B04930A9B039304
:1025C00053460293019710AB00930F9B0E9A0D99FF
:1025D0000C98FFF7BCFE19B00CBC91469A46F0BDB2
:1025E000F0B5DE4657464646C0B592B00890069113
:1025F000099207931A9C1B9D22002B0020002900A2
:1026000001F001FA002800D0EAE001225242D34B47
:102610002000290001F0F2F9002800D0E0E00122BA
:102620005242CF4B2000290001F0D2F9002800D0FF
:10263000D6E0002200232000290001F0C9F900287B
:1026400000D0E3E022002B000A920B938023DB00F2
:102650001E9A1A409246131E01D106331C930A9803
:102660000B9902000B000C920D9303000A00024329
:1026700000D1D3E00A00100D4005400DB94EB4461C
:1026800060441203120B1E00B74B13431F0001F0EE
:10269000CDF9B64AB64B01F059F9B64AB64B01F03E
:1026A00043F90C900D910022B44B3000390001F039
:1026B00032F9B34AB34B01F049F902000B000C9810
:1026C0000D9901F031F901F0C9F9804601F0AEF938
:1026D000AD4AAE4B0C900D9101F038F90022AC4B95
:1026E00001F022F901F0BAF90700AA4AAA4B0C98A6
:1026F0000D9901F02BF90C900D91380001F096F92D
:10270000A64AA74B01F022F902000B000C980D9984
:1027100001F001F902000B001090119101F016F97F
:102720000E900F919F4BFB181B050D9300230C93EC
:10273000109E119F32003B003000390001F0F4F888
:102740001090119132003B0000208021C90501F05A
:10275000E2F806000F000022934B0E980F9901F04B
:10276000ECF80022914B01F0DFF802000B000E980C
:102770000F9901F0E2F800228D4B01F0D5F802002C
:102780000B000E980F9901F0D8F802000B003000F2
:10279000390001F0C9F802000B001098119901F0FE
:1027A000CCF80022704B01F0BFF80C9A0D9B01F0A1
:1027B000CDF806000F000C900D910A9A0B9B01F0CA
:1027C0001DF900282CD001235B429C46E0440022E6
:1027D000764B3000390001F0B0F80C900D911FE0FD
:1027E0001E9B04931D9B03931C9B029322002B00B2
:1027F00000920193079B099A0699089800F002F944
:1028000012B01CBC90469A46A346F0BD0A948023A1
:102810001B069C46AC4463460B9317E7002398467F
:1028200043466333C62B22D804271E9B1B052AD59B
:102830000C9A0D9B1900114311D05E4A5E4B0A9809
:102840000B9901F0D3F8002800D1BBE000225B4BCC
:102850000A980B9901F0BCF8002800D1B2E01C9B4B
:10286000434506DD42469E1A731E1C9303E005276E
:10287000DBE700231C938023DB001E9A1A431E9281
:102880000027002398461D9B9F4200D3A6E0DB1B38
:102890009B4602231E9A1A40924603D0002F01D075
:1028A00000239B464346002B07D00C9A0D9B0A98A9
:1028B0000B9901F042F80A900B91002200232000AE
:1028C000290001F085F8002800D08AE03C4B1E9AD0
:1028D000134004935B4603931C9B02930A9B0B9C3F
:1028E00000930194079B099A0699089800F08AF8CA
:1028F000002F00D184E71E9B9B0600D47DE0452479
:10290000451C079B020006992000089CA0474046F2
:10291000C21781185140C30F7A1E052005900492FA
:10292000002203920A32029201930091079B2A002F
:1029300006992000FFF794FD5346002B00D15FE776
:102940000200089D099C131B1D998B4257D2561CEF
:10295000079B06992020A8473200F4E7FFFFEF7F8E
:10296000FFFFEFFF01FCFFFF0000F03FFB799F50EE
:102970001344D33FB3C8608B288AC63F0000F83F9A
:1029800061436F63A787D23F71A379094F930A40D0
:102990000000E03F1655B5BBB16B0240EF39FAFEBF
:1029A000422EE63FFF03000000002C4000002440C0
:1029B000000018402D431CEBE2361A3F80842E4164
:1029C000FFF7FFFF1C9B002B00D15CE75346002B59
:1029D00000D158E71C9B013B1C9354E700239B4606
:1029E00057E70A9C0B9D22002900802000068446A0
:1029F00061440B000A920B9368E7652480E710009E
:102A0000FEE6C046F0B5D646474680B597B006907C
:102A1000079108920993209F1E9A1F9B100019008E
:102A200000F0F1FF00282AD101225242BB4B1E9830
:102A30001F9900F0CDFF002830D101225242B84B3F
:102A40001E981F9900F0DAFF00283AD00423229A3A
:102A5000134032D0B34A002B31D103232299039182
:102A60002199029101930092099B089A079906986F
:102A7000FFF727FC17B00CBC90469A46F0BD229B8E
:102A80000393219B029303230193A74B0093099B7C
:102A9000089A07990698FFF714FCEBE7229B03932B
:102AA000219B029304230193A04B0093099B089A56
:102AB00007990698FFF705FCDCE79D4ACBE704235E
:102AC000CCE700229B4B1E981F9900F097FF00282F
:102AD00017D10022984B1E981F9900F079FF00280B
:102AE0000FD1002200231E981F9900F071FF0028CB
:102AF00017D100239A46229B5B0500D47DE0002677
:102B00001FE0229B0493219B039302971E9B1F9C13
:102B100000930194099B089A07990698FFF760FDB6
:102B2000A8E71E9A1F9B0020002100F0F4FE1E90D3
:102B30001F9101239A46DEE70EAB30229A55013FE2
:102B400001361F2E01D8092FF6D81E981F9900F0C4
:102B500085FF040000F06AFF02000B001E981F9919
:102B600000F0D9FEFA00754B9B181A685B680C924E
:102B70000D9300F0EBFE0A900B9100F093FF05001F
:102B800000F050FF02000B000A980B9900F0C3FE02
:102B90000A900B9100226A4B00F030FF00282ED0E3
:102BA0000135280000F03EFF02000B000C980D9943
:102BB00000F014FF002801D001340025002F2CD193
:102BC000200000F033FF02000B001E981F9900F058
:102BD000A2FE00225A4B0A900B9100F0F9FE002849
:102BE00041D10022564B0A980B9900F007FF0028AC
:102BF00039D1E30737D5013435E006277FE70022D6
:102C00004F4B0A980B9900F0E3FE0028D6D1002D17
:102C100001D0EB07D2D50135D0E70A941F2E10D88A
:102C2000013F0A21280000F031FC741C30310EAB4A
:102C300099550A21280000F029FC051E25D0260000
:102C4000ECE70A9C04E00EAA302191551F000136E2
:102C50001F2E02D87B1E002FF5D11F2E03D80EABDE
:102C60002E229A5501361F2E14D80A21200000F07A
:102C7000E1FB751C30310EAB99550A21200000F0A4
:102C8000D9FB041E05D02E00EDE7A0460A9C46465F
:102C9000DEE72E000323229A1340012B16D01F2EAD
:102CA00006D85346002B28D00EAB2D229A5501365C
:102CB000229B0393219B029301960EAB0093099BE9
:102CC000089A07990698FFF7FCFAD3E6219B002B98
:102CD0000DD05346002B02D10C33134207D0219B59
:102CE000013B219303E00EAB30229A550136219B24
:102CF0009E42D4D21F2EF6D9D1E7229B5B0704D582
:102D00000EAB2B229A550136D2E7229B1B07CFD55B
:102D10000EAB20229A550136CAE7C046FFFFEFFFEF
:102D2000FFFFEF7F647B0010707B0010747B00104E
:102D30006C7B001065CDCD4165CDCDC1807B001091
:102D40000000E03FF0B5DE4657464E464546E0B54A
:102D500095B006000B9115001393002900D1FCE2F9
:102D60000027139B1878002800D1F8E2252809D005
:102D70007C1C2B003A000B99B047139B0133139333
:102D80002700EEE70133139300241DE00B00303BD6
:102D9000DBB2092B37D92A293AD000239A46139B54
:102DA0001A782E2A44D000230C93139A1378683B88
:102DB000D9B2122900D980E08B00D049CB589F4668
:102DC00001231C4301321392139A11780B00203B0C
:102DD000D8B21028DAD88300C948C3589F460223C6
:102DE0001C4301321392EFE704231C430132139278
:102DF000EAE708231C4301321392E5E710231C4342
:102E000001321392E0E713A8FFF749FA8246C6E7BA
:102E10001E9B1A1D1E921B68002B04DB9A46139BF7
:102E200001331393BBE7022214435B429A46F6E751
:102E30008022D20014435A1C13925A781300303B5C
:102E4000DBB2092B04D92A2A07D000230C93ACE764
:102E500013A8FFF724FA0C90A7E71E9B1A1D1E92D9
:102E60001B68002B04DB0C93139B013313939CE72B
:102E70000023F8E780235B002343511C1391527811
:102E80006C2A01D01C0018E0C0239B001C430131B8
:102E9000139112E080232343511C13915278682A26
:102EA00001D01C0009E0C0231C430131139104E050
:102EB00080235B001C4301321392139B187803009C
:102EC000253BDAB2532A00D93DE293008D4AD3580C
:102ED0009F4680239B001C4301321392EDE7802321
:102EE0005B001C4301321392E7E778280AD0582888
:102EF0003BD06F283CD062283DD010239C43063B3A
:102F00009C4601E010239C46582837D0692803D0FE
:102F1000642801D00C229443630501D50122944317
:102F200069282ED064282CD0A30500D5A5E0E305A0
:102F300000D5BFE0630600D4D2E01E9A111D1E9199
:102F40001168FF220A400594534604930C9B039397
:102F5000634602930023019300922B003A000B99E1
:102F60003000FFF77DFA07002BE010239C46CBE7EB
:102F700008239C46C8E702239C46C5E72022144349
:102F8000C4E7A30521D4E30551D4630668D51E9A8E
:102F9000111D1E911168FF220A40D317D118594004
:102FA000D20F0594534604930C9B039363460293FC
:102FB000019200912B003A000B993000FFF750FA74
:102FC0000700139B01331393CBE61E9BDA1D0721E9
:102FD0008A43110008311E91116853689846DB1727
:102FE00010931193109A119B100048400E901900F5
:102FF000404641400F910E980F99801A99410E90CA
:103000000F914346DA0F0894534607930C9B06939F
:1030100063460493002305930292009001912B00D4
:103020003A000B993000FFF76AFA0700C9E71E9AC9
:10303000111D1E911268D317D1185940D20F059453
:10304000534604930C9B03936346029301920091B1
:103050002B003A000B993000FFF702FA0700B0E7A7
:10306000230605D51E9A111D1E910023D25E94E7FA
:103070001E9A111D1E9112688FE71E9BDA1D0721F3
:103080008A43110008311E9153681268009201931F
:1030900000220894534607930C9B069363460493BF
:1030A000059202922B003A000B993000FFF727FAA5
:1030B000070086E71E9A111D1E9113680093059460
:1030C000534604930C9B039363460293002301939E
:1030D0002B003A000B993000FFF7C2F9070070E7A8
:1030E000230606D51E9A111D1E9112681204120C99
:1030F00029E71E9A111D1E91126824E78479001099
:10310000D0790010147A001046281AD01E9B07337D
:10311000072293431A0008321E921A685B680092D5
:1031200001930494534603930C9B02932B003A00A3
:103130000B993000FFF766FC0700139B01331393D4
:103140000FE620231C43E1E7672801D0472802D17E
:1031500080231B011C43452801D0472801D120238F
:103160001C431E9B0733072293431A0008321E920A
:103170001A685B68009201930494534603930C9B76
:1031800002932B003A000B993000FFF729FA070051
:10319000139B01331393E4E502232340994622D085
:1031A000012398461E9B1A1D1E927C1C18782B002A
:1031B0003A000B99B0474B46002B1AD1139B0133B1
:1031C00013932700CDE5571C0C9B0B992020A84793
:1031D00023003A005C1C9E42F5D8B2461700A04678
:1031E0002E000C9DDEE701233A000C953500564673
:1031F000F0E7220043460C953500564606E0571C82
:103200000C9B0B992020A84723003A005C1C9E428F
:10321000F5D814002E000C9DD0E71E9B1A1D1E929F
:103220001B689B460C9B002B21D1012252425B461E
:1032300001E001330A001978002902D0511E002A4A
:10324000F7D15A469B1A98468023DB0023409946C3
:1032500003D00C9B984500D9984602232340129333
:1032600007D03A005C4637004E460D951FE00C9A99
:10327000DDE73A004346370056460D9506E0551CFB
:103280000D9B0B992020B84723002A005C1C9E420E
:10329000F5D8B2463E00A0465C4637004E4606E0F2
:1032A0000C930134551C0D9B0B99B8472A002078CC
:1032B000002805D0002EF4D00C994B1E0029EFD128
:1032C0003E0017000D9D129B002B03D1139B013371
:1032D000139346E543460C953500564606E0571CC9
:1032E0000C9B0B992020A84723003A005C1C9E42AF
:1032F000F5D817002E000C9DE8E7212323431E9AE2
:10330000111D1E91126800920593082304930C9BD3
:10331000039310230293002301932B003A000B998F
:103320003000FFF79DF80700139B0133139318E556
:103330007C1C2B003A000B992520B047139B0133CE
:10334000139327000DE57C1C2B003A000B99B04726
:10335000139B01331393270003E5094E00E5AF42A9
:103360000CD36A1E2B000B990020B047380015B013
:103370003CBC90469946A246AB46F0BD3A00F1E708
:103380008F2200100EB410B585B0010007AC08CC38
:1033900003940122009452420348FFF7D3FC05B086
:1033A00010BC08BC03B018478722001000B585B0D8
:1033B000029003910121009313004A4202A902489E
:1033C000FFF7C0FC05B000BD9122001001480421A8
:1033D000014B184730030020FD33001010B50100E9
:1033E00018231B8814221088984710BD10B50100BF
:1033F00018231B8816221088984710BDF0B5C646C2
:1034000000B507000E0000250123984600E00135B5
:10341000B5420AD2AC003C192068FFF7DFFF2060FC
:103420000028F4D100239846F1E7404604BC9046BA
:10343000F0BD0000144A936F9B0815D29066D166C8
:10344000002905D0FFE7FFE7FFE7516F106F7047D6
:1034500004B580210906C2175140002800D0C84396
:1034600003F09EFD002104BD936F5B08FDD3F0B512
:10347000946ED56E576F166FFFF7E0FF9466D566B2
:1034800057671667F0BD0000000000D0134A936F25
:103490009B0813D210665166002905D0FFE7FFE7AD
:1034A000FFE7516F106F704704B5002801D000206E
:1034B000C04303F075FD002104BDC046936F5B0857
:1034C000FDD3F0B5946ED56E576F166FFFF7E2FF20
:1034D0009466D56657671667F0BD0000000000D0FF
:1034E00094464E4A926F9208624601D230E0C0463E
:1034F000F0B54A4EB56F6D08FCD3346E756E776FBC
:10350000366F00F025F89446444A146655665767AE
:1035100016676246F0BDC0469446404A926F9208D4
:10352000624601D258E0C046F0B53C4EB56F6D081A
:10353000FCD3346E756E776F366F00F04DF894469D
:10354000364A14665566576716676246F0BDC04630
:10355000002B24DB11D000293EDA00B5C9434042DC
:1035600000D1013100F038F8C943404200D10131A7
:10357000DB43524200D1013300BD002AEBD10028C9
:1035800001D1002905D00020C90FC90701D1C043CE
:10359000410800B503F0FCFC0022002300BD00B58B
:1035A00000290ADBDB43524200D1013300F014F85A
:1035B000C943404200D1013100BDC943404200D15E
:1035C0000131DB43524200D1013300F005F8DB4307
:1035D000524200D1013300BD002923D1002B18D164
:1035E000002A0CD0BC460D4F38667A6600210023B5
:1035F000FFE7FFE7FFE77A6F386F674670470028FD
:1036000001D00748010000B503F0C2FC00220023EE
:1036100000BD02000B00002000217047000000D018
:10362000FFFFFFFF002B00D0BDE0130C26D1002AC6
:10363000E7D080B4104F39667A66FFE7FFE730B411
:10364000040C7B6F396F1B0423433B66FFE7FFE7E6
:10365000FFE7C04684B27B6F3D6F1B0423433B668C
:10366000FFE7FFE7C04600232C042D0C7A6F386F6C
:1036700000196941B0BC7047000000D0F0B5944615
:103680000025140E01D112020835140F01D11201C8
:103690000435940F01D192000235D40F01D15200AC
:1036A0000135D40B0134254F7C66254C3C660E0C4D
:1036B00093B2FFE7FFE7FFE73C6F6643360C770303
:1036C000BE467343DF0B5B04C01AB941130C73434E
:1036D000DB18C91ACE086643360CB64493B273435E
:1036E0001F0F1B01C01AB941130C73431F0B1B059D
:1036F000C01AB941860D8F023E436643360C092D30
:1037000024DB520A7243801A7703460A6643360C5A
:1037100016235B1BDE40DF40BF1964466643821BF5
:103720007046043506330100D940A840C01900D3C3
:103730000131A24206D20023F0BD0000000000D0FB
:10374000FFFFFFFF121B0130F3D3F1E709277F1BB7
:10375000FE406446A2B27243801A00D20139220CA4
:103760007243130C1204821A99410B0070460435FF
:1037700013370100F940A840801900D30131002B14
:1037800002D1A2420AD2F0BD013000D30131121B96
:10379000FAD2013BF8D1A24200D2F0BD013000D3F1
:1037A0000131121BF7E7F0B51C0C00D080E00CB41F
:1037B00000251C0A04D11B02160E334312020835E1
:1037C0001C0B04D11B01160F3343120104359C0B53
:1037D00004D19B00960F334392000235DC0B02D1DB
:1037E00092185B4101351C00971864410134464F23
:1037F0007C66464C3C660E0CFFE7FFE7FFE7C046E1
:103800003C6F6643360C7703BE4697B27743C01BC6
:1038100000D20139C01B00D201399FB27743C91BC6
:10382000C91B170C77437E04FF0B801BB941CE08E0
:103830006643360C0C2D33DBB644120B1F053A439E
:103840001B0B97B27743C01B00D201399FB277435D
:10385000C91B170C77433E043F0C801BB941860DF2
:103860008F023E43664329277F1BFE400C3D77466F
:10387000AF40BF1930BCA2B2ABB272437343801ADF
:103880009941220C7243130C1204801A99410200D0
:103890000B000137001BA941F9D2781E0021F0BDB1
:1038A0000C277F1BFE4077467F0BAF40FF19E0E7F8
:1038B00000245D1C07D0144F7D663966FFE7FFE7E3
:1038C000FFE7FFE73C6F95B29EB265436643401B3E
:1038D000B141150C1E0C6543664336042F0C3E4364
:1038E0002D04401BB141994204D202000B0020007C
:1038F0000021F0BD01D19042F7D3801A99410134E3
:103900009942F2D3F6E70000000000D0FFFFFFFF6E
:1039100048404140484018B4114B5B68FC46019355
:1039200008BD04DFAF3B001018B40D4B1B68FC460C
:10393000019308BD00DFB93B001018B4084BDB68E9
:10394000FC46019308BD0CDF713E001018B4044B17
:103950009B68FC46019308BD08DF153D0010000080
:10396000A80F0020FFB550404240504059404B4006
:10397000594000E0FFB5154F4C00640D03D0BC4228
:1039800004D10C0314D80020090D09055C00640D56
:1039900003D0BC4204D11C030AD800221B0D1B0516
:1039A00001264B4009D44B4003D58B4200D18242C3
:1039B000FFBD9942FCD19042FFBD0B43DB1803438E
:1039C0001343F5D0C9434918FFBD0000FF070000AD
:1039D00000B5FFF7CFFF804100BDC04600B5FFF73F
:1039E000C9FF01D9002000BD012000BD00B5FFF7CF
:1039F000B9FF01D9002000BD012000BD00B5FFF7CF
:103A0000B1FF804100BD012040054A00121804D8D2
:103A10005A00121801D8002070470120704700207A
:103A2000704700000021002805D17047C1174840A9
:103A3000401AFAD0C90713B5064B1B6898470CBC4F
:103A4000441CA2401005120B0349091B0905194328
:103A5000114310BDA81100201F04000010B54C0038
:103A6000620D8023D218DB00D21A5B057E2A10DD9E
:103A70009E3A13DACC170903490819435242D14040
:103A8000640001341532202A05DAD040084360432F
:103A900010BD002010BD0846604310BDC80FC018FF
:103AA000013810BD18B4044B5B6AFC46019308BD95
:103AB00024DF9D4000100000A80F002070B51323E4
:103AC0001C78012C0FD0012C0FDC022C02DC1D4ACB
:103AD0001D4B9A6470BD99001A481B4A88500133E7
:103AE0001F2BF8D9EFE70023FAE71848FFF77EFC11
:103AF00005001748FFF77AFC023803789B007F2BFC
:103B000019DD80222900104800F070FC022CDCD165
:103B1000104B1A88B5231B029A4209D10E4B1A8802
:103B20000E4B9A4204D10E4B1A880E4B9A42CCD0BF
:103B30000020FDF781FF0C4B0C4A30210C48FDF7AB
:103B40005DFFC046753B0010A80F002053440000E5
:103B50005346000054380000D838000049460000A1
:103B60009C38000059460000D07B0010747C001087
:103B7000307C001007B56046002800D100BE0188E7
:103B80000A0A0230DF2AFAD1C9B2820804D30288B5
:103B900040880004104300E00068024A505003903F
:103BA00007BD0000A80F00200FB403BC0CBCF0B58B
:103BB0000124E407634000E0F0B50C0DCF0F661E52
:103BC0003605891B640503D3C943404200D3013144
:103BD000640D03D0661CF60A07D0E41B00207F00AA
:103BE000791C89078912803C24031D0DDF0F6E1E8E
:103BF00036059B1B6D0503D3DB43524200D30133D3
:103C00006D0D03D06E1CF60A07D0ED1B00227F005D
:103C10007B1C9B079B12803D2D032F1B661B58D4DA
:103C2000A446202E46DA20371400BC401D00BD40BB
:103C3000F24033412A4380185941CB0F05D0C94384
:103C4000C043002264425041514162464D0D28D18B
:103C50000D0D07D100281FD0241940414941013AD8
:103C60000D0DF9D0640006D3013000D30131002CD2
:103C700001D140084000013A0BD4941CE40A04D15D
:103C800012051144DB071944F0BDD907204B194335
:103C900000E0D9070020F0BD0029DDD1002CDBD1E8
:103CA000F0BD0132C6074008CD0728434908002E61
:103CB000E1D0D9E73C2E29DA203E40371400BC4041
:103CC00000D00124F24014431A00BB401C43D31718
:103CD000ACE7AC46202F08DA20360400B4400D00D3
:103CE000B540F84039412843A5E73C2F0CDA203F86
:103CF00040360400B44000D00124F84004430800DA
:103D0000B1400C43C117EAE710001900002494E702
:103D10000000F07FF0B50C0D661E3605891BE60A23
:103D20006405640D02D0651CED0A04D00020012159
:103D30000905803C2403A4461C0D671E3F05DB1BC0
:103D4000E70A6405640D02D0651CED0A04D0002268
:103D500001231B05803C24037740644497B484B25C
:103D600096B27443070C7E43150C6F4380B26843D0
:103D7000361802D3012000043F183004350C001916
:103D80007D41844688B29AB250430C0C62431F0CAA
:103D90007C438EB27E43921902D301263604A419C5
:103DA0001604170C3618674101BC81B29AB2514310
:103DB000040C62431B0C5C4380B25843121802D3BC
:103DC0000120000424181004130C401863412D181E
:103DD0005E410020474106BC88B293B258430C0CA8
:103DE0006343120C544389B251435B1802D301213F
:103DF0000904641819041A0C091862416D18564117
:103E00000020474118BCF902720D1143F0026A0DFF
:103E10001043ED020A0D03D16D1940414941013BA8
:103E2000124E9B1B7600B3420ED26D0007D30130B9
:103E3000002671416646354301D1400840001B050C
:103E4000C918E4072144F0BD0BDA013306D1013073
:103E500004D101314F0D01D04908F2E7E1070020FC
:103E6000F0BD013631050020EBE70000FF03000044
:103E7000F0B51C0D671E3F05DB1BE70A6405640DEA
:103E800002D0661CF60A04D0002201231B05803CE8
:103E90002403D0252D060026F6432E661E096E66E5
:103EA000CE0FF619B44649004F0D02D07E1CF60A1B
:103EB00003D000200021403F3F033E1BB600B44426
:103EC000013F7F05C91B49082E6F013676089C0209
:103ED000950D25437543ED137543AD1301356D10F5
:103EE000F603761B0CB4CC02450D2C43A2B2B3B240
:103EF0005A43270C7B43350C6F43A4B26C431B1908
:103F000002D3012424043F191C041D0CA4187D4174
:103F100024196D41009A91B2ACB26143170C7C43F5
:103F20002B0C5F4392B25A43A41802D3012212040D
:103F3000BF182204230C52187B41019C6C431B19AF
:103F4000520ED9010A434401A01A81B2B2B25143C0
:103F500003145A43360C734387B27743D617D219EA
:103F600000277E4136049B191704160C7F185E410A
:103F70007316ED18F301002680337541A90F06D1A1
:103F80006400690AE8055B0A184309D22FE004229D
:103F9000944480337541A90AA8059B0A184326D387
:103FA000404149412404009A019B0D005543641B84
:103FB0004343E41A95B286B27543170C7E43030C53
:103FC0005F4392B25A43B61802D301221204BF18BB
:103FD0003204330C52197B4152429C41002C02D4D2
:103FE0000022013051414008CA071043490802B07D
:103FF0006246D7079210084BD218084B9A4203D258
:1040000012058918C919F0BD0020002A01DC390009
:10401000F0BD01331905F5E7FD030000FE070000C0
:10402000624618CA944600291ADAC01861415B46F4
:104030003B415C46B4405246FA40224344464D461A
:1040400062416B41904699462B46B3403D41FC404E
:104050001C4352465B46A241AB4192469B46704789
:10406000C01AA1414B463B414C46B4404246FA403F
:10407000224354465D4662416B4192469B462B4625
:10408000B3403D41FC401C4342464B46A241AB413C
:10409000904699467047002000217047002200B5E5
:1040A000203200F004F8080000BD000000220B15CB
:1040B000F1D410B5944600F02FF81414013400DA4E
:1040C0000021CB17134C20476244343A0CD40C2AFD
:1040D00007DA04009140904052422032D4402143FC
:1040E00010BDD843D94310BD203207D40C469440AC
:1040F000524220321141D040204310BD0800C91760
:10410000203203D452422032104110BD1800190051
:1041100010BD0000C94000100A0DCC0F531E1B0536
:10412000C91A520503D3C943404200D30131520D8D
:1041300003D0531CDB0A07D0121B00206400611C53
:1041400089078912803A1203014BD21A7047000086
:10415000FF03000051434343C9188C46110C83B23E
:104160004B4310B4040C614392B280B2504362439B
:104170001C041B0C001910BC59411304120CC0186C
:10418000514161447047000048404140484000238D
:104190009C46094B5B68184700239C46064B1B68EE
:1041A000184700239C46044BDB68184700239C46B5
:1041B000014B9B6818470000A810002007B5484035
:1041C0004140484001E0C04607B54200120E03D00E
:1041D000FF2A03D1420218D8C00DC0054A00120EB2
:1041E00003D0FF2A03D14A020FD8C90DC905012205
:1041F000414005D4414001D5814207BD884207BDF9
:104200000143491801D0C043001807BD00B5FFF7AE
:10421000D5FF804100BD0000C10FC90700D5404255
:10422000002817D0F44603B40B4B1B68984706BC14
:1042300081409E384042803107D20B0607D04900AA
:10424000490AC0051043084360470130F8E7490AAE
:104250008902F5E770470000A8110020034BDB6FCF
:10426000FC4618477CDFA14300100000A810002086
:1042700070B513231D782A48FFF7B8F80400012D04
:1042800011D0012D09DDA31E1B789B007F2B40DD83
:1042900080222100234800F0A9F82348FFF79EF868
:1042A000224B186070BD542201001E4800F09EF899
:1042B0001F4B1A881F4B9A421CD1A7239B011A88B7
:1042C0001D4B9A4216D11D4B1A881D4B9A4211D193
:1042D0001C4B1A8894239B019A420BD11A4B1A88C3
:1042E0001A4B9A4206D11A4B1A681A4B9A4201D1BC
:1042F000152307E01848FDF79FFB99001748094A66
:10430000885001331F2BF8D9144A064B1A62DA6120
:10431000B7E7134B134A42211348FDF76FFBC04622
:1043200053460000A81000204C330000A8110020C4
:10433000EE290000C40F0000C20D0000962B000003
:10434000C0B50000182B0000CC2A000010B50000FA
:10435000FC2C000051ED8764B47500106D43001013
:10436000887C0010007D0010BC7C001007B5604602
:10437000002800D100BE01880A0A0230DF2AFAD1E3
:10438000C9B2820804D3028840880004104300E0C8
:104390000068024A5050039007BD0000A81000209A
:1043A000C30FDB0741000A0E07D0FF2A08D0090916
:1043B000054A8918194340077047190000207047C3
:1043C0000249C918FAE70000000000380000F07F39
:1043D00001480421014B184740030020FD33001021
:1043E000014B1B681847000040030020014B5B682D
:1043F0001847000040030020F8B506000D00170024
:10440000437C002B23D10368110028009847F8BD96
:10441000337C10E00221174833689847601C013450
:10442000BC4217DA002CF3DD2B19013B1B780D3B46
:104430005A425341DBB22A5D0A2AF0D1002BEED159
:10444000A042E7DA211A281833689847E2E70024E7
:104450000020E5E7B84203DA391A2818336898478C
:10446000002FD4DDED19013D2B780D3B5A4253410D
:104470003374CCE77C7D001070B505000368002B19
:1044800016D00C4B1C6805E0291D2A682000FFF798
:10449000B3FFE468002C09D02368002BF9D0064B49
:1044A0001B68002BF0D0A342F3D1EDE700232B6073
:1044B00070BDC046E8080020EC08002070B505007B
:1044C0000C000B68802B05D023685A1C2260E4186E
:1044D000257170BD0800FFF7CFFFF5E710B582B07A
:1044E000D0231B061C6801A9064802F061FD0028C4
:1044F00006D1019BA34203D0024802F069FD0120CE
:1045000002B010BD9403002010B5024802F038FD3F
:1045100010BDC04694030020F0B585B001900D0099
:104520001600FFF7DBFF07006B1C02D0164B1C6860
:1045300005E0019802F0F0FC0500F7E7E468002CC4
:1045400018D02368002BF9D0104B1B68002B01D02A
:10455000A342F3D12A0001992000FFF74DFF002E5E
:10456000ECD002ABD91D0A230B7001222000FFF70B
:1045700043FFE3E7002F04D1681E8541E8B205B090
:10458000F0BDFFF7C1FFF7E7E8080020EC080020C6
:104590000C4B1A681300002B0BD0834202D01A0078
:1045A000DB68F8E7002903D1DB68D3600023C36030
:1045B00070470029FCD0002A01D0D060F8E7014BF9
:1045C0001860F5E7E808002010B5064B1C6800E00D
:1045D000E468002C04D06368002BF9D09847F7E713
:1045E00010BDC046E808002070B5050002F094FC3C
:1045F0000400012201002800FFF78EFFFFF7E4FF0F
:10460000200070BD70B5A2B004000E00FFF766FF79
:1046100005008422002101A8FFF7E2FE33002200FA
:1046200001A90848FEF7C2FE040001A8FFF724FF15
:10463000FFF7CAFF002D02D1200022B070BDFFF7A6
:1046400063FFF9E7BD4400100FB400B583B004A9BF
:1046500001C90191FFF7D6FF03B008BC04B01847A9
:1046600010B500F035F910BD70470000014B002275
:104670001A707047A50F00204B79FF2B01D0002046
:1046800070478B79002B0DD1CB79012B01D0002005
:10469000F6E7082A01D80020F2E78A78024B1A7060
:1046A0000920EDE70020EBE7A50F0020012070476F
:1046B0000120704770B50A794B791B021343144AE5
:1046C0001278934201D0002070BD4B78012B03D0AB
:1046D000022B15D00020F7E78A78CB781B02134312
:1046E000DA050BD55A0A012595407F241C4009485C
:1046F000FEF774FE03002100280098470025F4E728
:10470000642205490020FDF705FB0120DCE7C046D7
:10471000A50F002055420000002004200123037053
:1047200000487047807D001010B50B784A7812025F
:104730001A438B781B041A43CB781B06134396222B
:10474000D200934200D010BD0348FEF747FE03009D
:10475000002108009847C0465542000030B583B09C
:1047600004000D0001A9184802F022FC002808D11D
:10477000D0231B061B68019A9A4221D0124802F0EE
:1047800027FC002001F0E6FD002807D10324644245
:104790000D4802F0F5FB200003B030BD002001F011
:1047A000FDFD002802D103246442F1E72A00210024
:1047B000002001F001FE041EEAD103246442E7E771
:1047C00003246442E7E7C046880F002010B50021AB
:1047D000054802F0EDFB002800D110BD01F066FB9A
:1047E000014802F0CDFBF8E7880F0020F0B5C6467F
:1047F00000B582B080460D0001A92E4802F0D8FB1A
:10480000002808D1D0231B061B68019A9A420FD0BA
:10481000284802F0DDFB002001F09CFD002847D174
:10482000254B0020002118605960224802F0A8FBA7
:1048300002B004BC9046F0BD01F038FB002001F04E
:10484000D3FD002001F086FD0028EED0002001F00D
:1048500049FE00281DD0AC42E7DA2E1B002001F0F3
:1048600041FE864200DC30000028E5D0434619199D
:104870000200002001F01AFE060001F017FB0020E4
:1048800001F0B2FDA419FCF729FD0B4B186059602B
:10489000E1E7FCF723FD084B1E685F68074A002329
:1048A00092197B419942C0D8D5D19042D3D9BCE767
:1048B0000024D0E7880F0020B004002020A10700CA
:1048C00010B51F20FDF734FBFA208000002110BD39
:1048D00010B584B01C4B1B7802F03EF81B491F201A
:1048E000FDF736FB01211F20FDF71AFB1848FCF7E6
:1048F000EBFDFCF7C9FA0400FCF7F0FCFA22920089
:10490000002312184B41994214D901225242D31765
:1049100001210291002101910E4900912000FCF734
:10492000C9FA0400631E9C41E4B2002807D12000AC
:1049300004B010BD9942EBD19042E6D8E8E70121DE
:104940000548FFF725FEF2E7DC830010CD47001095
:10495000880F0020C1480010500300200048704715
:104960004C7E001000487047F87D001010B50028FC
:104970000BD10F4B0F4A5A80012301335B00C02239
:10498000920013430A48038010BD05280ED880000A
:10499000094BC4580023122BEFD8E25C002AECD05C
:1049A0000133590002484252DBB2F4E70020EBE742
:1049B000C008002009040000607E00107F22024031
:1049C000C3093420584368235343C018014BC0180F
:1049D0007047C046F008002010B582B001AB00223D
:1049E0001A7080325A70002408E001AB185DFFF79E
:1049F000E5FF01234371002303750134012CF4D931
:104A000002B010BD10B5C36A402B00D84023164930
:104A10000A680261D3180B60990604D03F218B43CA
:104A2000403311490B60104B19688B0610D10F4BA6
:104A30005A404B40802149018B420FD83023C35C40
:104A40009B061A43A0231B061A4383681A6010BDF5
:104A5000074B084A59210848FCF7D0FF074B054A85
:104A60005B210548FCF7CAFF740F002000001050BE
:104A7000547F0010787E0010847F0010D47F0010D7
:104A8000F8B504007F2008404FB2FE0F2171667018
:104A9000FD43ED0FE570A070002823D10121617165
:104AA000012B21D0402A26D8E2623022A354002EC6
:104AB00025D0C3001A4A94466344E360E3680022A9
:104AC0001A60A378002B20D0002F22DB0138C00011
:104AD000144B9C466044A0602000FFF793FF012325
:104AE0002370F8BD0021DAE70F498A42DCD91100B2
:104AF0000E48FCF7A1FF11000C48FCF79DFFC30016
:104B00000B4A94466344E360D8E7A360094B2361F2
:104B1000E5E70138C000084B9C466044A060DBE735
:104B2000800010500C001050FF030000088000109F
:104B300084001050000110500800105070B504009F
:104B40000D001600FFF73AFF33002A002100FFF79F
:104B500097FF70BDF0B5CE46474680B583B0264B73
:104B60009B6D9846002701240AE0244B244ADF214C
:104B70002448FCF743FF4346A343984664000137AB
:104B80004346002B33D01F2F31D843461C42F5D06B
:104B9000194BDB6D1C42E8D11B4B9C657B08012641
:104BA0003E4072425641F6B2FF221A4091463425E9
:104BB000754368235343ED18144BED18280000F09B
:104BC000C7FA0028D7D034235E4334334A465343D0
:104BD000F6180E4B9E19F2693179012300930023D8
:104BE000002000F049FE280000F0F4F9C3E703B00C
:104BF0000CBC90469946F0BD00001150608000103A
:104C00008C7E0010847F001000301150F0080020CE
:104C100070B51B4A9823D458E30307D40025E30654
:104C200012D4E30415D4A54225D170BDFFF7D4FEFC
:104C300001221449002000F005FE134B802292024D
:104C40001A6580256D02EAE710231D43FFF782FFF6
:104C5000E7E700230D4A1370094A136080235B01C4
:104C60001D4301220121002000F0D8FD064B8022C7
:104C700012031A65D7E7290061400548FCF7DCFEFE
:104C8000000011500000105000301150A20F002001
:104C90004C80001070B50C0015001E00FFF78EFE52
:104CA00033002A00210000F07FFA70BD10B5FFF735
:104CB00093FE0123002200218020FFF7EBFF10BDAF
:104CC00010B50400037D002B11D18378002B05D192
:104CD0004378002B12D00122094B9A6680221201E0
:104CE0000849200000F080F90123237510BD8421BC
:104CF000054B064A49000648FCF780FE0222EBE716
:104D000000201150FFF7FFFF30800010A47E00103C
:104D1000847F001010B5FFF751FEFFF7D1FF10BDE3
:104D200010B504008378002B05D14378002B0AD0FE
:104D30000122064B9A6600220549200000F054F932
:104D40000023237510BD0222F3E7C0460030115046
:104D5000FFF7FFFF10B5FFF731FEFFF7E1FF10BDD2
:104D600010B5002804D101210520FDF7D9F810BDA8
:104D70007E21034B034AFF310348FCF73FFEC04648
:104D800040800010C47E0010847F001010B5002801
:104D900004D1064B1970FFF789FF10BDC521044BE4
:104DA000044A49000448FCF729FEC046A20F00202F
:104DB00040800010D47E0010847F001010B50028C1
:104DC00004D1064B80225202DA6410BDD221044B7A
:104DD000044A49000448FCF711FEC0460020115067
:104DE00040800010E47E0010847F001010B5041E87
:104DF00028D100F0C7F817490520FDF7A9F8D022FF
:104E0000D20000211448FFF7EBFA144B00221A706D
:104E1000134B144A1A60002240210020FFF78EFE37
:104E2000002240218020FFF789FE0F4B01221A64E7
:104E300080229205DA6490220C4999502000FFF7F5
:104E4000BDFF10BD60210A4B0A4AFF310A48FCF73A
:104E5000D5FDC046114C0010F0080020A20F002024
:104E6000740F00208001105000001150101001003C
:104E700040800010B87E0010847F001010B500281C
:104E800008D10B785B0602D14B78052B09D0FFF7D0
:104E9000A3FD10BDB021054B054AFF310548FCF7C5
:104EA000ADFD054B1A78054B1A60F0E74080001005
:104EB000F07E0010847F0010A20F0020000011502F
:104EC00010B50C0000280DD1097962790723134031
:104ED0001B021943E2789207920FA078FFF72EFE8B
:104EE000012010BDC021034B034AFF310348FCF7EA
:104EF00085FDC046408000100C7F0010847F0010AC
:104F000010B50C0011001A00002805D10123200063
:104F1000FFF7C0FE012010BDE321034B034A490007
:104F20000348FCF76BFDC046408000101C7F00105A
:104F3000847F001010B5002803D10800FFF7EAFEB7
:104F400010BDD021024B034AFF310348FCF756FD48
:104F5000408000102C7F0010847F001010B50028C6
:104F600003D10800FFF7F6FE10BDEB21024B034A08
:104F700049000348FCF742FD408000103C7F0010D0
:104F8000847F001010B580235B040D4A13600D4A26
:104F900013600D4B9A6880235B049343F9D10B4C4B
:104FA0009C2200212000FFF71BFA802252010021E1
:104FB0000748FFF715FA092363670333A36710BD9A
:104FC00000E0004000F0004000C000400000115030
:104FD000000010500023037543753222835483610F
:104FE000C36103628362704710B5002902D0C368B1
:104FF0001B681940002A0FD0114353050CD5C26815
:1050000013685B050BD40A4B0B401360FFE7FFE707
:10501000FFE7FFE7FFE7FFE7C368196010BD81788E
:1050200043789B00034A9A580348FCF705FDC046A5
:10503000FFFBFFFF640300209880001070B50400A0
:10504000056A8022D2002A43C378002B14D06379EA
:10505000002B1ED0802189010A4301214B4063713E
:105060002423E35C002B02D08023DB011A430021C0
:105070002000FFF7B9FF70BD836AC269944663449C
:1050800019002A000069FFF7B1F9842212022A43AD
:10509000DDE70021E0E770B504000E001500437D58
:1050A000002B18D1A5610023E3612B1CAAB2402A72
:1050B00000D940239BB2236201226275A662ED1AD9
:1050C0006B425D412423E55401330022E254200069
:1050D000FFF7B4FF70BDFFF77DFFE3E770B5040095
:1050E000C3681B689D05AD0DC278002A13D11B044F
:1050F0000BD4C3695B19C361E378002B04D0236A26
:10510000AB4201D9E369A36170BD0D4B0D4ABF21CC
:105110000D48FCF773FC1B040CD5836AC2699446E6
:10512000634418002A002169FFF760F9E3695B19FD
:10513000E361E1E7054B034AC9210348FCF75EFC44
:10514000188100106C8000103881001088810010D8
:1051500070B50400457D002D17D0FFF7BFFFA16992
:10516000E2698B1A402B00D940232362D318CB1A53
:10517000584243412420235491420BD303D02000B2
:10518000FFF75CFF0025280070BD8178034A0448C2
:10519000FCF752FC0348FCF74FFCC04664030020B8
:1051A000C8800010F480001010B50478002C04D0E2
:1051B000002B09D1FFF7CCFF10BD0C21044B054A91
:1051C000FF310548FCF71AFCFFF765FFF4E7C0461E
:1051D000B8800010848000103881001070B5002461
:1051E00003E00D782C19A4B2491994420AD24D78E3
:1051F000052DF6D18E787A3535406D004519F609C2
:10520000AB55EEE770BD000070B505001C4C3722B1
:1052100000212000FFF7E4F8E01C1022FF21FFF737
:10522000DFF8200013301222FF21FFF7D9F800F039
:10523000D9FF002411E0E31ADBB2002B07D1DA001A
:10524000D21A91000F4B5B1802E02300F5E7002310
:105250005B68280098470134E4B20B4B1B785A1C5A
:1052600094420BDA094A002AEFD0A342E3D9E200C4
:10527000121B9100064B1B685B18E9E770BDC04626
:1052800004080020D4820010A00F00201D47001049
:10529000D404002070B505000C001600086900F069
:1052A000ABFFE36831002800984770BDF0B5CE46EB
:1052B000474680B583B001900139C8B2FFF752FB71
:1052C000002802D04378022B0AD0624A6249634820
:1052D000FFF7BAF9002003B00CBC90469946F0BD28
:1052E000C5796B1101225E4C1340190123781026F9
:1052F000B343AD112A4052010B4320218B4313438A
:105300002370060009368278C3781B021343804657
:1053100098447CE03378B146F61880E0CA229200C7
:105320004D494E48FFF790F90020D4E7E31ADBB26D
:10533000002B07D1DA00D21A92004A4B9B1802E0E8
:105340002300F5E700239B682A0031000198984765
:10535000071E13D10134E4B20094434B1B785A1C4E
:1053600094424EDA414A002AEAD0A342DED9E20052
:10537000121B92003E4B1B689B18E4E7082818D9C3
:10538000854216D3B278364B9B18DB78FF2B17D1AA
:10539000334B9B18DC704B46002B2AD09A78B3789D
:1053A0009A4214D14B461A7973799A420FD101234C
:1053B0001BE0304A28492948FFF746F900208AE7D0
:1053C0002D4A25492548FFF73FF9002083E72B4A5E
:1053D00021492248FFF738F900207CE7B1785918B5
:1053E0001F4A5218D4700133DBB24A46D2789A422F
:1053F000F4D81B4823003A0031001330FFF7EEFECB
:10540000F619194B1B780133009A9A4210DA464577
:1054100016D273780B2B00D17CE700239946737862
:10542000042B00D07AE743469D1BADB2002493E7DE
:10543000D522920008490948FFF706F900204AE7FB
:105440000F4B002B03D000E000BF012043E70120F9
:1054500041E7C04613030000848200103883001027
:1054600004080020D4820010A00F00201D47001067
:10547000D404002036030000390300004303000079
:1054800000000000F0B583B004000D008B78C878F0
:1054900000021843030AC0B20F2B60D89B00334AA6
:1054A000D3589F46FFF75AFA020012232900200022
:1054B00000F046FE54E02E4B002B10D000E000BF61
:1054C00006006B469F1D811C02223800FEF78EFFEE
:1054D0003B8832002900200000F032FE40E000202E
:1054E0003EE0FFF73FFA061E0DD06B469F1D811C64
:1054F00002223800FEF77AFF3B88320029002000A4
:1055000000F01EFE2CE01B4A1B491C48FFF79CF8CC
:10551000002025E00B79497909021943FFF726FAA3
:1055200000281FD0037802002900200000F008FEA8
:1055300016E0134B002B17D000E000BF002806D068
:10554000037802002900200000F0FAFD08E0F022B4
:10555000920009490948FFF777F8002000E0002091
:1055600003B0F0BD0020FBE70020F9E7B081001098
:1055700000000000A2030000988200103883001091
:1055800000000000024B5878431E9841C0B270479B
:1055900004080020024B18784007C00F7047C0462F
:1055A0000408002010B5372200212348FEF718FF19
:1055B000224C2000FBF788FF214B1C60214C20006F
:1055C0001830FBF794FF200001F0BEFB1E4B1C605F
:1055D0001E4B002B04D01E48FFF7A0F81D4B18608F
:1055E000002410E0E31ADBB2002B07D1DA00D21A54
:1055F0009100194B5B1802E02300F5E700231B68BC
:1056000098470134E4B2124B1B785A1C94420BDACF
:105610000E4A002AF0D0A342E4D9E200121B910006
:105620000C4B1B685B18EAE70020FFF7DFFB00204C
:10563000FFF796FB012010BD04080020BC070020E6
:105640003C0800206C030020400800201D4700108B
:10565000A00F0020D4040020D482001010B543789D
:10566000032B71D031D9042B6AD0052B00D0A0E0D8
:10567000644B1B78DB0767D5624A137804218B43A0
:105680001370614B1C686369002B00D08BE0A2692A
:10569000EFF3108172B61368002BFCD0BFF35F8F5D
:1056A000E1610100200001F0E3FAA269E369BFF3C0
:1056B0005F8F0021116083F31088002844D1AD2250
:1056C00052495348FEF7C0FF3EE0022B00D070E085
:1056D0004C4B1A7801218A431A701A7801318A4397
:1056E0001A7000225A701A7802318A431A70464B97
:1056F0001C686369002B1DD1A269EFF3108172B69B
:105700001368002BFCD0BFF35F8FE1610100200024
:1057100001F0AEFAA269E369BFF35F8F0021116067
:1057200083F3108800280FD1AD2238493848FEF79E
:105730008BFF09E0374B354AA3313748FCF75EF958
:10574000304B1B78DB0700D410BD2E4A13780421A0
:105750000B4313702C4B1C686369002B1DD1A2698D
:10576000EFF3108172B61368002BFCD0BFF35F8F8C
:10577000E1610100200001F07BFAA269E369BFF357
:105780005F8F0021116083F310880028DCD1AD22E7
:105790001E491F48FEF758FFD6E71E4B1B4AA7219C
:1057A0001D48FCF72BF91B4B184AA3311A48FCF78C
:1057B00025F9154B1C686369002B1DD1A269EFF315
:1057C000108172B61368002BFCD0BFF35F8FE161CC
:1057D0000100200001F04CFAA269E369BFF35F8F7A
:1057E0000021116083F310880028ADD1AD22074954
:1057F0000748FEF729FFA7E7064B044AA7210648FA
:10580000FCF7FCF80408002040080020508200103B
:1058100038830010F082001000830010F0B585B0CE
:1058200007000E00150001AC0A2200216B46981DEE
:10583000FEF7D6FD2770667029002000FFF70EFFE7
:1058400005B0F0BDF0B585B007000E00150001AC45
:105850000A2200216B46981DFEF7C2FD2770062321
:1058600063700822310002A8FEF7C0FD2900200065
:10587000FFF7F4FE05B0F0BDF0B5CE46474680B563
:1058800085B08146884617001E000CAB1D7801AC20
:10589000062200216B46981DFEF7A2FD4B462370A1
:1058A0000723637043462371A760667129002000B7
:1058B000FFF7D4FE05B00CBC90469946F0BD10B57C
:1058C000FFF7FEFA10BD0000F0B5CE4600B582B07D
:1058D00001900C0091461E00002515E0174A18495A
:1058E0001848FEF7B1FE0027380002B004BC91460C
:1058F000F0BD154A12491348FEF7A6FEF4E7099ACF
:1059000013702378E4180135A94514DD6378052B5D
:10591000E4D1E3789B079B0FB342DFD121000198CC
:10592000FFF7CDFF071EE4D0A378DA09012AE6D0FD
:10593000089A1370E5E70127D6E7C0462D0400005A
:10594000B0820010388300102E04000070B57F264E
:105950000E40CD0972001D4B9B185B1920335C79FA
:10596000E407E40F2ED1194B9B185B1920335B79A8
:105970005B0728D4164B18680121494201F020FB2F
:105980007200124B9B185B1920335B79DB0708D43C
:105990000E4B9B185B1920335B795B0702D4012403
:1059A00000E00024002C08D0760008498E197519F3
:1059B00020356B79042213436B71054B186801F095
:1059C000DFFA00E00024200070BDC046040800207B
:1059D0003C08002070B57F240C40CD09154B186899
:1059E0000121494201F0ECFA6200134B9B185B194C
:1059F00020335B79DB0708D40F4B9B185B192033EE
:105A00005B795B0713D4002600E00026002E08D047
:105A1000640009490C19651920356B7904229343F8
:105A20006B71044B186801F0ABFA300070BD0126B1
:105A3000ECE7C0463C08002004080020F0B5C6464C
:105A400000B582B001937F250D40CE096F00174C41
:105A5000E419A41920346479E4071DD46F00134CB1
:105A6000E419A419203463790127BC4667463B43F7
:105A70006371019BFFF744FA002813D16D000B4BB3
:105A80005D19AE19203673790122934373717379CE
:105A900003329343737105E0054A06490648FEF751
:105AA000D3FD002002B004BC9046F0BD04080020E5
:105AB00095040000C48200103883001070B57F2464
:105AC0000C40CD09FFF736FA6400064B1B195B1931
:105AD00020335A7902210A435A715A7901210A4323
